S01700004763634170706C69636174696F6E362E7372656356
S11300009FC00000BDC00000BBC00000B9C000001C
S1130010B7C00000B5C00000B3C00000B1C000000C
S1130020AFC00000ADC00000ABC00000A9C000001C
S1130030A7C00000A5C00000A3C00000A1C000002C
S11300409FC000009DC000009BC0000099C000003C
S113005097C0000095C0000093C0000091C000004C
S11300608FC00000DCC100008BC0000089C000000C
S113007087C0000085C0000083C0000081C000006C
S11300807FC000007DC000007BC0000079C000007C
S11300900C94E80F75C0000073C0000071C000002C
S11300A06FC000006DC000006BC0000069C000009C
S11300B067C0000065C0000063C0000061C00000AC
S11300C05FC000005DC000005BC00000084AD73B71
S11300D03BCE016E84BCBFFDC12F3D6C74319ABD13
S11300E056833DDA3D00C77F11BED9E4BB4C3E9137
S11300F06BAAAABE000000803F072C7AA5BA6CC583
S113010090DA3B9365FC8BBC53F810FD3C5692830C
S11301104DBD879D3AB63DCBC9BF5BBE73DA0FC9EF
S11301203F05A84CCDB2D44EB93836A9020C50B90B
S1130130918688083CA6AAAA2ABE000000803F0037
S113014011241FBECFEFD1E2DEBFCDBF00E00CBF54
S113015012E0A0E0B2E0EAE1FAE200E00BBF02C084
S113016007900D92A830B107D9F725E0A8E0B2E0D6
S113017001C01D92A833B207E1F767D30C940B15A5
S11301803FCFCF92DF92EF92FF926A017B0182E42C
S11301908093C00088E98093C10086E08093C20008
S11301A09A01AB0160E074E284EF99E40E94E910E3
S11301B00E945611615071097093C5006093C40088
S11301C0A701960160E074E284E799E40E94E910D3
S11301D020E030E040E451E40E949012462F572F73
S11301E0682F792F40937E0450937F04609380049A
S11301F07093810440937A0450937B0460937C044D
S113020070937D0420917E0430917F04409180049A
S11302105091810460E070E08AE793E40E94E91061
S11302200E94561170937904609378047298739ABB
S11302308FEF8093C600109209021092080281E0A9
S113024090E0FF90EF90DF90CF90089580910802A6
S1130250809309020895CF93DF93F8947398729A68
S113026016161706ACF4A82FB92F9D01260F371FB9
S1130270E0ECF0E0C6ECD0E0808185FFFDCF80812A
S1130280806480838D918883A217B307A9F702C085
S113029060E070E0E0ECF0E0808186FFFDCF7298D2
S11302A0739A7894862F972FDF91CF9108951092A7
S11302B08504109284042091780430917904265F97
S11302C03F4F820F931F9093830480938204089579
S11302D08091840490918504019690938504809381
S11302E08404209184043091850480918204909147
S11302F083048217930740F089EB9BE00197F1F7A1
S1130300000020E030E002C021E030E0822F932F93
S1130310089590910902809108029817B9F090917C
S1130320090280910802981740F4209108028091F4
S1130330090230E0281B31090BC02091080280918A
S1130340090230E0281B3109339502C020E030E077
S1130350822F932F0895CF93C82FDBDF8F3F910512
S113036091F0E0910802F0E0E65FFD4FC0838091D8
S113037008028F3F19F41092080205C08091080208
S11303808F5F80930802CF91089590910902809124
S11303900802981799F0E0910902F0E0E65FFD4F3A
S11303A08081909109029F3F19F4109209020895E7
S11303B0909109029F5F9093090208958FEF089529
S11303C0EF92FF920F931F93CF93DF93082F192F70
S11303D0EB0130910902209108023217A9F099DF4C
S11303E0E82EF92ECE15DF050CF47E011E141F0431
S11303F06CF4C02FD12F8E010E0D1F1DC6DF899303
S1130400C017D107D9F702C0E12CF12C8E2D9F2DF6
S1130410DF91CF911F910F91FF90EF9008951F925C
S11304200F920FB60F9211240BB60F922F933F9396
S11304304F935F936F937F938F939F93AF93BF93E8
S1130440EF93FF938091C60086DFFF91EF91BF91F8
S1130450AF919F918F917F916F915F914F913F9158
S11304602F910F900BBE0F900FBE0F901F901895F9
S1130470CF93DF93EC016F5F7F4F882777FD8095E3
S1130480982F0E9484119B01AC0160E074E284EF18
S113049099E40E94E910AB01BC01CE0172DE892B04
S11304A069F081E090E09093070280930602109235
S11304B00B0310920A0321E030E002C020E030E098
S11304C0822F932FDF91CF910895CF9380910A03C8
S11304D090910B03019709F473C081E090E090932D
S11304E00B0380930A0340915703493958F084E081
S11304F090E0909307028093060210920B031092EF
S11305000A035EC080915803982F9150963068F08A
S1130510833859F084E090E09093070280930602B8
S113052010920B0310920A034BC08FEF8093540375
S11305308093550350E09A012F5F3F4F80E090E095
S113054070E060E0FC01EC5AFC4F8281780F6F5F31
S1130550862F90E082179307ACF3FA01EC5AFC4F14
S11305607095738380910602909107020697029713
S113057008F46CDEC0915703CC5F6C2F70E084E507
S113058093E069DEC81759F082E090E09093070287
S11305908093060210920B0310920A0311C08091FB
S11305A05803823031F480915A0390E006967FDE3E
S11305B003C086E090E07BDE1092070210920602F0
S11305C0CF910895CF93DF9380910A0390910B0309
S11305D0892B09F4FEC0809156038E3F59F481E0C3
S11305E090E0909307028093060210920B031092FE
S11305F00A03EFC08091060290910702892B29F427
S113060010920C0386E080930D0380910C0390E01C
S113061060910D0370E0681B790B825F9C4FD0DE04
S113062090910C03890F80930C0390910D0389170B
S1130630C8F44EDE0197B1F480910C03811107C018
S113064086E090E0909307028093060206C087E05C
S113065090E0909307028093060210920B0310928D
S11306600A03B7C0D0910C036D2F70E09B01215099
S11306703109121613060CF03FC080E090E0C0E090
S1130680AB0142505109D901A25FBC4FFC01E25FAA
S1130690FC4FE081EF3F31F4FC01E25FFC4FE1816C
S11306A0EF3F61F08417950719F4EC91EF3F31F0B7
S11306B0CF5F8C2F90E08217930744F3CC23E1F0B3
S11306C0AB01481B590B141615069CF420E030E0CE
S11306D060E0825F9C4FFC01E20FF31F7081F9011F
S11306E0E25FFC4F70836F5F262F30E024173507DD
S11306F094F3DC1BD0930C0380910C0390910D03B5
S1130700891738F485E090E09093070280930602FD
S113071060C02091560390911003291759F087E087
S113072090E0909307028093060210920B031092BC
S11307300A034FC0609111036C5F60930D03861729
S1130740B8F490E070E0681B790B825F9C4F38DE50
S113075090910C03890F80930C0390910D038917DA
S113076038F485E090E0909307028093060231C04C
S11307704091110350E09A012F5F3F4F80E090E0D9
S113078070E060E0FC01E25FFC4F8281780F6F5FF4
S1130790862F90E082179307ACF3FA01E25FFC4FD7
S11307A070958381871759F087E090E09093070252
S11307B08093060210920B0310920A030AC081E090
S11307C090E0909307028093060210920B0310921C
S11307D00A03DF91CF91089578DE8091060290910B
S11307E00702892B39F4EEDE80910602909107020C
S11307F00597C9F308959C013327822F932F0895F9
S11308008827892F90E00895CF93DF93EA01209100
S11308100A0330910B03232BA1F48093560383E046
S11308208093580360935903CA01E5DF80935A0308
S1130830CE01E6DF80935B0385E080935703CCDF32
S113084001C0FFCFDF91CF910895CF92DF92EF9255
S1130850FF920F931F9360E071EE80E090E00E949E
S1130860210F61E070E080E090E002DE78940E9465
S1130870C20E86E894E00E94180E4CEB52E060E24F
S113088070E08EEF90E0C0DF48E552E062E270E095
S11308908EEF90E0B9DF0E94740D2FEF8DE399E4A1
S11308A0215080409040E1F700C000000F2EC12C81
S11308B0D12CF0E8EF2EFFEBFF2EF02D00E010E03E
S11308C020E331EC40E050E0BA0181E090E084D4D0
S11308D000E010E020E331EC40E050E0BA0183E0B6
S11308E090E07AD400E010E020E331E440E050E00E
S11308F0BA0185E090E070D42FEF8DE399E42150A4
S113090080409040E1F700C0000000E010E020E3E8
S113091031EC40E050E060E270E481E090E05CD4CF
S113092000E010E020E331EC40E050E060E270E4ED
S113093083E090E051D400E010E020E331E440E0B3
S113094050E060E270E485E090E046D40F2EC12CC4
S1130950D12CF0EAEF2EF0E4FF2EF02D00E010E0B1
S113096020E331EC40E050E060E270EC82E090E0A3
S113097033D400E010E020E331E440E050E060E2F2
S113098070EC84E090E028D400E010E020E331E44F
S113099040E050E060E270EC86E090E01DD42FEF80
S11309A08DE399E4215080409040E1F700C00000BD
S11309B000E010E020E331EC40E050E060E270E45D
S11309C081E090E009D400E010E020E331EC40E065
S11309D050E060E270E483E090E0FED300E010E0D9
S11309E020E331E440E050E060E270E485E090E030
S11309F0F3D30F2EC12CD12CF0E8EF2EFFEBFF2EFA
S1130A00F02D00E010E020E331EC40E050E060E243
S1130A1070EC82E090E0E0D300E010E020E331E409
S1130A2040E050E060E270EC84E090E0D5D300E078
S1130A3010E020E331E440E050E060E270EC86E056
S1130A4090E0CAD32FEF8DE399E421508040904089
S1130A50E1F700C000000F2EC12CD12CF0EAEF2EDC
S1130A60F0E4FF2EF02D00E010E020E331EC40E054
S1130A7050E0BA0181E090E0AFD300E010E020E361
S1130A8031EC40E050E0BA0183E090E0A5D300E00F
S1130A9010E020E331E440E050E0BA0185E090E06A
S1130AA09BD30F2EC12CD12CF0E8EF2EFFEBFF2EA1
S1130AB0F02D00E010E020E331EC40E050E0BA011A
S1130AC082E090E089D300E010E020E331E440E0EC
S1130AD050E0BA0184E090E07FD300E010E020E32E
S1130AE031E440E050E0BA0186E090E075D32FEFA6
S1130AF08DE399E4215080409040E1F700C000006C
S1130B000F2EC12CD12CF0EAEF2EF0E4FF2EF02DA5
S1130B1000E010E020E331EC40E050E0BA0182E074
S1130B2090E05AD300E010E020E331E440E050E0EC
S1130B30BA0184E090E050D300E010E020E331E417
S1130B4040E050E0BA0186E090E046D32FEF8DE319
S1130B5099E4215080409040E1F700C000008EE10C
S1130B6090E049D42FEF8DE399E4215080409040E8
S1130B70E1F700C0000082EE9FEF3DD42FEF8DE33C
S1130B8099E4215080409040E1F700C000008EE1DC
S1130B9090E059D52FEF8DE399E4215080409040A7
S1130BA0E1F700C0000082EE9FEF4DD52FEF8DE3FB
S1130BB099E4215080409040E1F700C000008EE1AC
S1130BC090E06AD62FEF8DE399E421508040904065
S1130BD0E1F700C0000082EE9FEF5ED62FEF8DE3B9
S1130BE099E4215080409040E1F700C0000080E08B
S1130BF090E01F910F91FF90EF90DF90CF900895B8
S1130C002F923F924F925F926F927F928F929F9218
S1130C10AF92BF92CF92DF92EF92FF920F931F9306
S1130C20CF93DF9300D000D0CDB7DEB79E838D8302
S1130C304A015B0128013901A9019801C501B401E8
S1130C400E94931069837A838B839C83A50194010A
S1130C50C501B4010E9490124B015C01A3019201F1
S1130C60C301B2010E9490129B01AC01C501B40101
S1130C700E9420100E94FD1220E030E040EA50E47F
S1130C800E941F10262F372F482F592F0E94901291
S1130C904B015C01A7019601C701B6010E949012A5
S1130CA09B01AC01C501B4010E942010162F072F2F
S1130CB0382E292E0E94FD124B015C0120E030E009
S1130CC040E852E4612F702F832D922D0E94201052
S1130CD020E030E042EF52E40E941F102B013C015F
S1130CE020E030E040E851E4C501B4010E949012D4
S1130CF09B01AC01C301B2010E94E9100E941110D2
S1130D002B013C01A5019401C701B6010E94E91021
S1130D100E9411104B015C01212F302F432D522DC5
S1130D2060E070E089E393E40E941F1020E030E06B
S1130D3040E353E40E94E9100E9411106B017C010E
S1130D4089819A81AB81BC81ED81FE81808391830D
S1130D50A283B383A5019401C301B2010E942010B0
S1130D60AD81BE8114966D937D938D939C9317975B
S1130D70FD01C086D186E286F386CD0126960FB6A4
S1130D80F894DEBF0FBECDBFDF91CF911F910F91BD
S1130D90FF90EF90DF90CF90BF90AF909F908F9097
S1130DA07F906F905F904F903F902F9008952F9277
S1130DB03F924F925F926F927F928F929F92AF92E7
S1130DC0BF92CF92DF92EF92FF920F931F93CF9334
S1130DD0DF93CDB7DEB768970FB6F894DEBF0FBECA
S1130DE0CDBF1C01C982DA82EB82FC820D831E8393
S1130DF02F83388749875A876B877C8789819A81B3
S1130E00AB81BC818D879E87AF87B88B4D805E8018
S1130E106F80788489859A85AB85BC85898B9A8B0C
S1130E20AB8BBC8BC501B4010E94E6106B017C0145
S1130E30C501B4010E94F3124B015C012D853E856E
S1130E404F855889C701B6010E9490126D8B7E8B25
S1130E508F8B988FA3019201C501B4010E94901257
S1130E609B01AC016D897E898F89988D0E941F102A
S1130E70D1016D937D938D939C931397A501940158
S1130E806D857E858F8598890E9490124B015C0147
S1130E90A7019601C301B2010E9490129B01AC010B
S1130EA0C501B4010E942010F10164837583868317
S1130EB0978389899A89AB89BC8980879187A2871E
S1130EC0B387C10168960FB6F894DEBF0FBECDBFDD
S1130ED0DF91CF911F910F91FF90EF90DF90CF9012
S1130EE0BF90AF909F908F907F906F905F904F9046
S1130EF03F902F9008954F925F926F927F928F92BE
S1130F009F92AF92BF92CF92DF92EF92FF920F9394
S1130F101F93CF93DF93CDB7DEB72C970FB6F8941A
S1130F20DEBF0FBECDBF2C013B0129873A874B871B
S1130F305C876130710591F5B401882777FD809550
S1130F40982F0E94841124EF36EA47E051E40E946E
S1130F5090129B01AC016A2D7B2D8C2D9D2D0E943E
S1130F601F10A62EB72EC82ED92E8DE0889DB00155
S1130F70899D700D1124882777FD8095982F0E94F4
S1130F8084119B01AC016E2D7F2D802F912F0E9427
S1130F901F10E62EF72E082F192F50C0623071054E
S1130FA0D1F4B401882777FD8095982F0E9484118D
S1130FB020E030E048E551E40E9490129B01AC012E
S1130FC06A2D7B2D8C2D9D2D0E941F10A62EB72ED1
S1130FD0C82ED92E67C06330710581F5B401882706
S1130FE077FD8095982F0E94841124EF36EA47E01C
S1130FF051E40E9490129B01AC016A2D7B2D8C2D33
S11310009D2D0E941F10A62EB72EC82ED92E8DE01E
S1131010889DB001899D700D1124882777FD8095E6
S1131020982F0E9484112E2D3F2D402F512F0E9466
S11310302010E62EF72E082F192F51C084E06816D1
S1131040710481F5B401882777FD8095982F0E945B
S1131050841124EF36EA47E051E40E9490129B0188
S1131060AC016A2D7B2D8C2D9D2DEAD7A62EB72E93
S1131070C82ED92E8DE0889DB001899D700D112454
S1131080882777FD8095982F0E9484119B01AC01DD
S11310906E2D7F2D802F912FD2D7E62EF72E082F7D
S11310A0192F50C085E068167104C9F4B40188276B
S11310B077FD8095982F0E94841120E030E048E568
S11310C051E40E9490129B01AC016A2D7B2D8C2D62
S11310D09D2DB6D7A62EB72EC82ED92E33C086E0A6
S11310E06816710479F5B401882777FD8095982FE7
S11310F00E94841124EF36EA47E051E40E949012E2
S11311009B01AC016A2D7B2D8C2D9D2D99D7A62E8C
S1131110B72EC82ED92E8DE0889DB001899D700D03
S11311201124882777FD8095982F0E9484119B01B4
S1131130AC016E2D7F2D802F912F82D7E62EF72EB6
S1131140082F192F8A2D9B2DAC2DBD2D89839A83B1
S1131150AB83BC838E2D9F2DA02FB12F8D839E83B7
S1131160AF83B8878CE0FE013196D20101900D92D5
S11311708A95E1F7C2012C960FB6F894DEBF0FBE34
S1131180CDBFDF91CF911F910F91FF90EF90DF9032
S1131190CF90BF90AF909F908F907F906F905F9013
S11311A04F900895CF92DF92EF92FF920F931F9387
S11311B0FC014083518362837383048315832683F4
S11311C03783C086D186E286F3861F910F91FF9004
S11311D0EF90DF90CF9008952F923F924F925F92BD
S11311E06F927F928F929F92AF92BF92CF92DF9233
S11311F0EF92FF920F931F93CF93DF93CDB7DEB798
S11312006C970FB6F894DEBF0FBECDBF1C01B42E91
S1131210598F862E972E522E632EAC2C8330910537
S113122069F082E028163104D9F091E029163104DE
S113123001F164E57EE28EE79FE304C066E474E8AE
S113124089E090E4A4E02A16310471F4262F372FA4
S1131250482F592F6BED7FE089EC90E4F0D612C053
S11312606BED7FE089E490E4B5E02B16310431F0B6
S113127009C068EB7DE484E890E404C060E070E0B9
S113128080E090E0C02E202F312F452D562D29834C
S11312903A834B835C830B2D4B2C598C682C792C13
S11312A04D825E826F8278864A2D4A2C5D2C6E2C8C
S11312B07F2C49865A866B867C86862E972EA82E8E
S11312C0B92EDA80EB80FC801E812F8138855A8507
S11312D06B857C85CE0101966ADD89809A80AB801E
S11312E0BC808D819E81AF81B885898F9A8FAB8FA9
S11312F0BC8F49845A846B847C8473016201950198
S11313008401AC01BD01CE010D967ADCC101880FC8
S1131310991F820D931D880F991F880F991F95019E
S11313208401498D5A8D6B8D7C8D80559B4F3ADF9E
S113133021EE3EE245E652E469897A898B899C89EB
S11313400E949012A62EB72EC82ED92E21EE3EE270
S113135045E652E46D897E898F89988D0E949012AA
S1131360E62EF72E082F192F21EE3EE245E652E431
S11313706D857E858F8598890E9490129B01AC01B2
S113138061E070E0C10101D520E030E044EB52E4BB
S11313906A2D7B2D8C2D9D2D52D69B01AC0162E0D4
S11313A070E0C101F2D42E2D3F2D402F512F60E06B
S11313B070E084E393E443D69B01AC0163E070E006
S11313C0C101E3D46C960FB6F894DEBF0FBECDBF57
S11313D0DF91CF911F910F91FF90EF90DF90CF900D
S11313E0BF90AF909F908F907F906F905F904F9041
S11313F03F902F9008952F923F924F925F926F9259
S11314007F928F929F92AF92BF92CF92DF92EF9290
S1131410FF920F931F93CF93DF93CDB7DEB7AD97B2
S11314200FB6F894DEBF0FBECDBF2BED3FE049E40D
S113143050E40E94901220E030E044E353E4C9D623
S1131440C62ED72EE82EF92EC1D66D8F7E8F8F8FA4
S113145098A36C2D7D2D8E2D9F2D0E94F31269A3D0
S11314607AA38BA39CA30F2EFCEB6F2EF4E07F2EAC
S1131470F02D22242394312CD3012C911196FC902D
S113148011971296FC9112971396EC911397189654
S11314903C91189719967C9119971A966C911A9702
S11314A01B965C911B9714964C9114971596CC90AF
S11314B015971696DC9016971796EC90A42E842F09
S11314C09C2DAD2DBE2D89839A83AB83BC83E22EE4
S11314D0822F9F2DAF2FBE2F8D839E83AF83B8871E
S11314E0232F832F972FA62FB52F89879A87AB8712
S11314F0BC8788248394912CBA80CB80DC80FE80C6
S11315000F8118853A854B855C85B101CE01019622
S1131510F2DC89819A81AB81BC818DA39EA3AFA3A8
S1131520B8A78D809E80AF80B884C984DA84EB84A8
S1131530FC84A50194016D8D7E8D8F8D98A1F0D7CB
S1131540698F7A8F8B8F9C8FA701960169A17AA1ED
S11315508BA19CA1E5D79B01AC01698D7A8D8B8D04
S11315609C8D6DD5698F79A78AA79BA7A501940146
S113157069A17AA18BA19CA1D3D74B015C01A701DE
S113158096016D8D7E8D8F8D98A1CAD79B01AC017C
S1131590C501B40155D56CA77DA7582E492E8824C2
S11315A08A94982CA980BA80CB80DC80ED80FE8060
S11315B00F81188529853A854B855C85B101CE015B
S11315C00D9699DCFE013D96DE0111968CE00190AA
S11315D00D928A95E1F73CA52DA5C32ED22EE52CBC
S11315E0F42C0DA11EA12FA138A5F98DE9A59AA56A
S11315F08BA54F2F5E2F692F782FC101EDDD9FEF53
S1131600291A390AACE06A0E711CB7E02B163104B2
S113161009F032CFAD960FB6F894DEBF0FBECDBF42
S1131620DF91CF911F910F91FF90EF90DF90CF90BA
S1131630BF90AF909F908F907F906F905F904F90EE
S11316403F902F9008952F923F924F925F926F9206
S11316507F928F929F92AF92BF92CF92DF92EF923E
S1131660FF920F931F93CF93DF93CDB7DEB7AD9760
S11316700FB6F894DEBF0FBECDBF2BED3FE049E4BB
S113168050E44ED720E030E044E353E4A2D5E62E04
S1131690F72E082F192F802F912F98D56D8F7E8FBD
S11316A08F8F98A36E2D7F2D802F912F9CD769A3A8
S11316B07AA38BA39CA30F2EFCEB6F2EF4E07F2E5A
S11316C0F02D22242394312CD3012C9111961C91BA
S11316D011971296FC9112971396EC911397189602
S11316E03C91189719967C9119971A966C911A97B0
S11316F01B965C911B9714964C9114971596EC903D
S113170015971696FC90169717960C91A42E842F75
S11317109E2DAF2DB02F89839A83AB83BC83E22E99
S1131720822F912FAF2FBE2F8D839E83AF83B887D7
S1131730232F832F972FA62FB52F89879A87AB87BF
S1131740BC8788248394912CBA80CB80DC80FE8073
S11317500F8118853A854B855C85B101CE010196D0
S1131760CADB89809A80AB80BC808D819E81AF81E9
S1131770B8858DA39EA3AFA3B8A7C984DA84EB84EC
S1131780FC84A50194016D8D7E8D8F8D98A1C8D6A2
S1131790698F7A8F8B8F9C8FA701960169A17AA19B
S11317A08BA19CA1BDD69B01AC01698D7A8D8B8DDB
S11317B09C8D46D4698F79A7482E592EA501940192
S11317C0505869A17AA18BA19CA1AAD64B015C01B6
S11317D0A70196016D8D7E8D8F8D98A1A1D69B0159
S11317E0AC01C501B4012CD46AA77BA78CA79DA723
S11317F088248A94982CA980BA80CB80DC80ED80E0
S1131800FE800F81188529853A854B855C85B10159
S1131810CE010D9670DBFE013D96DE0111968CE043
S113182001900D928A95E1F73AA52BA59CA58DA56B
S1131830C32ED22EE92EF82E598D49A5052F142F2B
S1131840242D352D4DA15EA16FA178A5C101C4DC65
S11318509FEF291A390AACE06A0E711CB7E02B1607
S1131860310409F031CFAD960FB6F894DEBF0FBE48
S1131870CDBFDF91CF911F910F91FF90EF90DF903B
S1131880CF90BF90AF909F908F907F906F905F901C
S11318904F903F902F9008952F923F924F925F92D6
S11318A06F927F928F929F92AF92BF92CF92DF926C
S11318B0EF92FF920F931F93CF93DF93CDB7DEB7D1
S11318C0AD970FB6F894DEBF0FBECDBF2BED3FE052
S11318D049E450E425D620E030E044E353E479D4ED
S11318E0E62EF72E082F192F802F912F6FD46D8F8E
S11318F07E8F8F8F98A36E2D7F2D802F912F73D67F
S113190069A37AA38BA39CA30F2EFCEB6F2EF4E0A8
S11319107F2EF02D22242394312CD3012C91119667
S11319201C9111971296FC9112971396EC911397B0
S113193018963C91189719967C9119971A966C9160
S11319401A971B965C911B9714964C9114971596B5
S1131950EC9015971696FC90169717960C91A42E5A
S1131960842F9E2DAF2DB02F89839A83AB83BC83A4
S1131970E22E822F912FAF2FBE2F8D839E83AF83B4
S1131980B887232F832F972FA62FB52F89879A8760
S1131990AB87BC8788248394912CBA80CB80DC806D
S11319A0FE800F8118853A854B855C85B101CE0197
S11319B00196A1DA89809A80AB80BC80CD80DE80DC
S11319C0EF80F88489859A85AB85BC858DA39EA319
S11319D0AFA3B8A7A50194016D8D7E8D8F8D98A1BD
S11319E09FD5698F7A8F8B8F9C8FA701960169A1F0
S11319F07AA18BA19CA194D59B01AC01698D7A8DB0
S1131A008B8D9C8D1CD3698F79A78AA79BA7A50171
S1131A10940169A17AA18BA19CA182D54B015C019F
S1131A20A70196016D8D7E8D8F8D98A179D59B012F
S1131A30AC01C501B40104D36CA77DA7582E492E6F
S1131A4088248A94982CA980BA80CB80DC80ED808D
S1131A50FE800F81188529853A854B855C85B10107
S1131A60CE010D9648DAFE013D96DE0111968CE01A
S1131A7001900D928A95E1F7CDA0DEA0EFA0F8A425
S1131A80598D49A59AA58BA5052F142F292F382FD9
S1131A90FCA5EDA54F2F5E2F652D742DC1019CDB98
S1131AA09FEF291A390AACE06A0E711CB7E02B16B5
S1131AB0310409F032CFAD960FB6F894DEBF0FBEF5
S1131AC0CDBFDF91CF911F910F91FF90EF90DF90E9
S1131AD0CF90BF90AF909F908F907F906F905F90CA
S1131AE04F903F902F900895CF92DF92EF92FF9204
S1131AF00F931F930F2EC12CD12CF0EAEF2EF0E49C
S1131B00FF2EF02D00E010E020E331E440E050E04F
S1131B10BA0185E090E060DB00E010E020E331EC06
S1131B2040E050E0BA0182E090E056DB00E010E0D3
S1131B3020E331EC40E050E0BA0183E090E04CDB7C
S1131B4000E010E020E331E440E050E0BA0186E038
S1131B5090E042DB00E010E020E331EC40E050E0B4
S1131B60BA0181E090E038DB00E010E020E331E4EA
S1131B7040E050E0BA0184E090E02EDB00E010E0A9
S1131B8020E331E440E050E0BA018CEE94E00ADB5B
S1131B9000E010E020E331EC40E050E0BA0188ECD2
S1131BA094E000DB00E010E020E331EC40E050E0A2
S1131BB0BA0184ED94E0F6DA00E010E020E331E4C9
S1131BC040E050E0BA0188EF94E0ECDA00E010E085
S1131BD020E331EC40E050E0BA018CEB94E0E2DA2F
S1131BE000E010E020E331E440E050E0BA0180EE90
S1131BF094E0D8DA1F910F91FF90EF90DF90CF908F
S1131C000895CF93DF9300D000D0CDB7DEB7242F53
S1131C10352F462F572F682F792F80E090E0269696
S1131C200FB6F894DEBF0FBECDBFDF91CF910895FC
S1131C300F931F93CF93DF9300D000D0CDB7DEB7BF
S1131C408C0142E150E060E170E08EE090E0D9DF89
S1131C5029833A834B835C836D837E8386E0FE0114
S1131C603196D801169601900D928A95E1F74CE0D1
S1131C7050E06AE070E088E090E0C3DF29833A83B3
S1131C804B835C836D837E8386E0FE013196D801AD
S1131C901C9601900D928A95E1F746E050E064E0CD
S1131CA070E082E090E0ADDF29833A834B835C836C
S1131CB06D837E8386E0FE013196D80152960190B1
S1131CC00D928A95E1F741E150E06FE070E08DE01C
S1131CD090E097DF29833A834B835C836D837E8313
S1131CE086E0FE013196D801589601900D928A95AE
S1131CF0E1F74BE050E069E070E087E090E081DFDD
S1131D0029833A834B835C836D837E8386E0FE0163
S1131D103196D8015E9601900D928A95E1F745E0DF
S1131D2050E063E070E081E090E06BDF29833A8368
S1131D304B835C836D837E8386E0FE013196D801FC
S1131D40949601900D928A95E1F726960FB6F89431
S1131D50DEBF0FBECDBFDF91CF911F910F910895CC
S1131D60262F372F821793070CF49C01822F932F71
S1131D700895262F372F281739070CF49C01822F3A
S1131D80932F089584E095E053CFCF93DF93FC0124
S1131D90DB01CA01B901A130B10561F49F01220F31
S1131DA0331FE20FF31FEE0FFF1FEC5FFA4FC481E6
S1131DB0D58119C0129761F49F01220F331FE20FDE
S1131DC0F31FEE0FFF1FEC5FFA4FC281D3810BC0EC
S1131DD09F01220F331FE20FF31FEE0FFF1FEC5F73
S1131DE0FA4FC081D18120E030E040E054E498D340
S1131DF020E030E046E153E4ECD153D21616170646
S1131E003CF480E092E09C01261B370BB90109C029
S1131E10CB01992324F488279927861B970BBC01AF
S1131E207E5F8FEF93E09CDFBC0180E090E0A1DF58
S1131E30AC016EE170E0CE010E940404DF91CF9109
S1131E40089562D29B01AC0160E074E284EF99E4EE
S1131E50C0D12CD26150710982E48093C80088E912
S1131E608093C90086E08093CA008FEF8093CE00F0
S1131E701092F5031092F403872F992787FD9A9502
S1131E808093CD006093CC007298739A6FED7FE0DD
S1131E9088E69FE019D4909377048093760408959C
S1131EA0CF93DF931616170684F4A82FB92F6A0F61
S1131EB07B1FE8ECF0E0CEECD0E0808185FFFDCF25
S1131EC08D918883A617B707C1F7DF91CF91089545
S1131ED0CF93DF931F921F92CDB7DEB78A3051F4B0
S1131EE08DE089838AE08A8362E070E0CE01019606
S1131EF0D7DF06C0898361E070E0CE010196D0DFB0
S1131F0080E090E00F900F90DF91CF910895909131
S1131F10F5038091F4039817C1F09091F503809133
S1131F20F403981740F42091F4038091F50330E012
S1131F30281B31090CC02091F4038091F50330E093
S1131F40281B310920583F4F02C020E030E0822F87
S1131F50932F0895CF93C82FDADF8F37910591F02F
S1131F60E091F403F0E0EA50FC4FC0838091F40365
S1131F708F3719F41092F40305C08091F4038F5F36
S1131F808093F403CF9108959091F5038091F40325
S1131F90981799F0E091F503F0E0EA50FC4F808146
S1131FA09091F5039F3719F41092F50308959091D9
S1131FB0F5039F5F9093F50308958FEF0895A7DFCE
S1131FC0892BE9F3E1DF8D3009F48AE090E008958C
S1131FD01F920F920FB60F9211240BB60F922F93EC
S1131FE03F934F935F936F937F938F939F93AF939D
S1131FF0BF93EF93FF938091CE00ACDFFF91EF91FD
S1132000BF91AF919F918F917F916F915F914F910C
S11320103F912F910F900BBE0F900FBE0F901F900A
S113202018959F939F77ABD10F9000203AF4905866
S1132030A2EA2AED3FE049E450E413D01FC250580D
S1132040BB27AA270ED01AC2E3D130F0E8D120F082
S113205031F49F3F11F41EF4B3C10EF4E095E7FB95
S1132060A9C1E92F2DD280F3BA1762077307840739
S1132070950718F071F49EF545C20EF4E0950B2E09
S1132080BA2FA02D0B01B90190010C01CA01A001C6
S11320901124FF27591B99F0593F50F4503E68F121
S11320A01A16F040A22F232F342F4427585FF3CF62
S11320B0469537952795A795F0405395C9F77EF433
S11320C01F16BA0B620B730B840BBAF09150A1F07C
S11320D0FF0FBB1F661F771F881FC2F70EC0BA0F02
S11320E0621F731F841F48F4879577956795B7958A
S11320F0F7959E3F08F0B3CF9395880F08F0992782
S1132100EE0F97958795089583D158F080E891E074
S113211009F49EEF84D128F040E851E059F45EEFD1
S113212009C04EC1EFC1E92FE078CAD168F3092E86
S1132130052AC1F3261737074807590738F00E2E2A
S113214007F8E02569F0E025E0640AC0EF6307F8CA
S1132150009407FADB01B9019D01DC01CA01AD015C
S1132160EF9346D08BD10AD05F91552331F02BEDFC
S11321703FE049E450FD49EC63CF0895DF93DD2748
S1132180B92FBF7740E85FE31616170648075B07C9
S113219010F4D92FBED19F938F937F936F936BD2FB
S11321A0ECECF0E010D16AD12F913F914F915F9107
S11321B0C3D1DD2349F09058A2EA2AED3FE049EC6F
S11321C05FE3D0785D274DDFDF9158C130D1E395CF
S11321D066C10CD053C123D140F01AD130F021F4A0
S11321E05F3F19F0E7C051118EC1EAC069D198F37D
S11321F09923C9F35523B1F3951B550BBB27AA2784
S113220062177307840738F09F5F5F4F220F331FF5
S1132210441FAA1FA9F333D00E2E3AF0E0E830D0C1
S113222091505040E695001CCAF729D0FE2F27D0C4
S1132230660F771F881FBB1F261737074807AB0792
S1132240B0E809F0BB0B802DBF01FF2793585F4F07
S11322502AF09E3F510568F0ADC055C15F3FECF3D5
S1132260983EDCF3869577956795B795F7959F5FCC
S1132270C9F7880F911D9695879597F90895E1E020
S1132280660F771F881FBB1F621773078407BA077F
S113229020F0621B730B840BBA0BEE1F88F7E095DA
S11322A0089504D06894B1112EC1089511D188F015
S11322B09F5790F0B92F9927B751A0F0D1F0660F2E
S11322C0771F881F991F1AF0BA95C9F712C0B13049
S11322D081F018D1B1E0089515C1672F782F8827B0
S11322E0B85F39F0B93FCCF3869577956795B39588
S11322F0D9F73EF490958095709561957F4F8F4FF7
S11323009F4F0895E89409C097FB3EF490958095FB
S1132310709561957F4F8F4F9F4F9923A9F0F92FA7
S113232096E9BB279395F695879577956795B79525
S1132330F111F8CFFAF4BB0F11F460FF1BC06F5F0B
S11323407F4F8F4F9F4F16C0882311F096E911C01D
S1132350772321F09EE8872F762F05C0662371F03E
S113236096E8862F70E060E02AF09A95660F771F52
S1132370881FDAF7880F9695879597F90895DF9364
S1132380CF931F930F938B01EC01E9EFF0E01BD087
S113239075D09801AE018B01EC0160E070E080E83B
S11323A09FE34DDE2AD19801AE010F911F91CF9189
S11323B0DF91C2C097F99F6780E870E060E00895FC
S11323C09FEF80EC0895DF93CF931F930F93FF92B9
S11323D0EF92DF927B018C01689405C0DA2EEF0145
S11323E0ABD0FE01E894A591259135914591559185
S11323F0AEF3EF0136DEFE019701A801DA9479F716
S1132400DF90EF90FF900F911F91CF91DF9108958E
S113241000240A94161617061806090608950024BF
S11324200A9412161306140605060895C9CF50D04F
S1132430E8F3E894E0E0BB279F57F0F02AED3FE093
S113244049EC06C0EE0FBB0F661F771F881F28F0EC
S1132450B23A62077307840728F0B25A620B730B0F
S1132460840BE3959A9572F7803830F49A95BB0FF4
S1132470661F771F881FD2F7904802C1092E039464
S1132480000C11F4882352F0BB0F40F4BF2B11F45D
S113249060FF04C06F5F7F4F8F4F9F4F0895EF938E
S11324A0E0FF06C0A2EA2AED3FE049EC5FEBD9DD8C
S11324B0E5DF0F90039401FC9058E1E2F1E0F3C0F2
S11324C057FD9058440F551F59F05F3F71F04795E1
S11324D0880F97FB991F61F09F3F79F087950895C6
S11324E0121613061406551FF2CF4695F1DF08C0E5
S11324F0161617061806991FF1CF86957105610502
S113250008940895E894BB2766277727CB0197F9A9
S113251008959B01AC0160E070E080E89FE359CE30
S11325200BD0ACCF75DF28F07ADF18F0952309F0D3
S113253041CF46CF1124E7CFC3DFA0F3959FD1F35A
S1132540950F50E0551F629FF001729FBB27F00D5D
S1132550B11D639FAA27F00DB11DAA1F649F6627B2
S1132560B00DA11D661F829F2227B00DA11D621F01
S1132570739FB00DA11D621F839FA00D611D221FBB
S1132580749F3327A00D611D231F849F600D211D9F
S1132590822F762F6A2F11249F5750408AF0E1F042
S11325A088234AF0EE0FFF1FBB1F661F771F881F8B
S11325B091505040A9F79E3F510570F0FBCEA3CF38
S11325C05F3FECF3983EDCF3869577956795B79576
S11325D0F795E7959F5FC1F7FE2B880F911D9695A0
S11325E0879597F908959F9322DF0F9007FCEE5F7C
S11325F056CF11F40EF4E4CE41C06ADFD0F3992330
S1132600D9F3CEF39F57550B87FF46D00024A0E69D
S113261040EA900180585695979528F4805C660F9F
S1132620771F881F20F026173707480730F4621BEE
S1132630730B840B202931294A2BA69517940794F0
S1132640202531254A2758F7660F771F881F20F069
S113265026173707480730F4620B730B840B200DE1
S1132660311D411DA09581F7B901842F9158880F20
S11326709695879508959B01AC0152CF9F3F31F009
S1132680915020F4879577956795B795880F911D9C
S11326909695879597F9089591505040660F771F46
S11326A0881FD2F708959F938F937F936F93FF931F
S11326B0EF939B01AC0134DFEF91FF9184DE2F9106
S11326C03F914F915F912CCF0F931F93CF93DF9343
S11326D0EC018B01009731F46115710519F4E0E008
S11326E0F0E036C06EE070E081E090E037D0FC01AD
S11326F00097A9F380E883830115110571F013870E
S1132700028781E8838380912E0590912F05892B80
S113271021F4F0932F05E0932E052097C9F0D1877B
S1132720C0878381826083838091300590913105D5
S1132730892B71F4F0933105E093300580913205D3
S113274090913305892B21F4F0933305E0933205FE
S1132750CF01DF91CF911F910F9108950F931F9394
S1132760CF93DF93689F8001699F100D789F100DB0
S11327701124C8010FD0C82FD92F209729F0A80100
S113278060E070E08C2F40D1CE01DF91CF911F919A
S11327900F9108950F931F93CF93DF938230910588
S11327A010F482E090E0E0913605F091370520E0E6
S11327B030E0C0E0D0E023C0408151814817590780
S11327C0A8F04817590761F482819381209719F082
S11327D09B838A832EC0909337058093360529C046
S11327E02115310529F04217530710F0A90102C041
S11327F0BE01DF0102811381EF019A01F8013097D4
S1132800D9F62115310509F1281B390B243031057E
S113281090F412968D919C9113976115710521F096
S1132820FB019383828304C090933705809336051C
S1132830FD01329644C0FD01E20FF31F8193919391
S1132840225031092D933C933AC0209134053091A4
S11328503505232B41F42091020230910302309379
S11328603505209334052091000230910102211591
S1132870310541F42DB73EB7409104025091050251
S1132880241B350BE0913405F0913505E217F3076D
S1132890A0F42E1B3F0B2817390778F0AC014E5FCC
S11328A05F4F2417350748F04E0F5F1F50933505CF
S11328B0409334058193919302C0E0E0F0E0CF01AE
S11328C0DF91CF911F910F910895EF92FF920F9393
S11328D01F93CF93DF93009709F48FC0DC01129705
S11328E013961C921E921297E0903605F0903705CD
S11328F0E114F10489F42D913C911197280F391FAB
S113290080913405909135058217930789F5B0932A
S11329103505A093340571C0E70120E030E001C023
S1132920EA01CA17DB0738F44A815B819E0141152D
S11329305105B1F722C0BC0162507109FB01D38378
S1132940C28300811181AC01400F511F4C175D07F8
S113295061F448815981400F511F4E5F5F4F51838D
S113296040834A815B81538342832115310529F4D5
S1132970B0933705A093360540C0F901B383A28311
S1132980E90169917991C60FD71FAC17BD0779F496
S1132990DC015E914E91460F571F4E5F5F4F51838E
S11329A0408312968D919C91139793838283A0E028
S11329B0B0E002C0D7017C01F701828193810097C6
S11329C0C9F7C701029620813181820F931F20919C
S11329D03405309135052817390779F4109729F40F
S11329E0109237051092360504C013961C921E925D
S11329F01297F0923505E0923405DF91CF911F9143
S1132A000F91FF90EF900895DC0101C06D93415048
S10D2A105040E0F70895F894FFCF5A
S10B2A1A000038052000010052
S9030000FC
